{
  "contractName": "Certification",
  "abi": [
    {
      "anonymous": false,
      "inputs": [
        {
          "indexed": false,
          "internalType": "string",
          "name": "certid",
          "type": "string"
        }
      ],
      "name": "certificateGenerated",
      "type": "event"
    },
    {
      "inputs": [
        {
          "internalType": "string",
          "name": "",
          "type": "string"
        }
      ],
      "name": "certificates",
      "outputs": [
        {
          "internalType": "string",
          "name": "name",
          "type": "string"
        },
        {
          "internalType": "string",
          "name": "usn",
          "type": "string"
        },
        {
          "internalType": "string",
          "name": "sem",
          "type": "string"
        },
        {
          "internalType": "string",
          "name": "branch",
          "type": "string"
        },
        {
          "internalType": "string",
          "name": "course",
          "type": "string"
        },
        {
          "internalType": "string",
          "name": "ipfshash",
          "type": "string"
        }
      ],
      "stateMutability": "view",
      "type": "function",
      "constant": true
    },
    {
      "inputs": [
        {
          "internalType": "string",
          "name": "_certid",
          "type": "string"
        },
        {
          "internalType": "string",
          "name": "_name",
          "type": "string"
        },
        {
          "internalType": "string",
          "name": "_usn",
          "type": "string"
        },
        {
          "internalType": "string",
          "name": "_sem",
          "type": "string"
        },
        {
          "internalType": "string",
          "name": "_branch",
          "type": "string"
        },
        {
          "internalType": "string",
          "name": "_course",
          "type": "string"
        },
        {
          "internalType": "string",
          "name": "_ipfshash",
          "type": "string"
        }
      ],
      "name": "generateCertificate",
      "outputs": [],
      "stateMutability": "nonpayable",
      "type": "function"
    },
    {
      "inputs": [
        {
          "internalType": "string",
          "name": "_certid",
          "type": "string"
        }
      ],
      "name": "getCertificate",
      "outputs": [
        {
          "internalType": "string",
          "name": "_usn",
          "type": "string"
        },
        {
          "internalType": "string",
          "name": "_name",
          "type": "string"
        },
        {
          "internalType": "string",
          "name": "_sem",
          "type": "string"
        },
        {
          "internalType": "string",
          "name": "_course",
          "type": "string"
        },
        {
          "internalType": "string",
          "name": "_branch",
          "type": "string"
        },
        {
          "internalType": "string",
          "name": "_ipfshash",
          "type": "string"
        }
      ],
      "stateMutability": "view",
      "type": "function",
      "constant": true
    },
    {
      "inputs": [
        {
          "internalType": "string",
          "name": "_certid",
          "type": "string"
        }
      ],
      "name": "isVerified",
      "outputs": [
        {
          "internalType": "bool",
          "name": "",
          "type": "bool"
        }
      ],
      "stateMutability": "view",
      "type": "function",
      "constant": true
    }
  ],
  "bytecode": "0x608060405234801561001057600080fd5b50610eac806100206000396000f3fe608060405234801561001057600080fd5b506004361061004c5760003560e01c8063234c76d5146100515780634e435daa146100795780638f2b91ea1461008e578063ed0f2e75146100b3575b600080fd5b61006461005f366004610bd0565b6100c6565b60405190151581526020015b60405180910390f35b61008c610087366004610c0d565b6100fc565b005b6100a161009c366004610bd0565b6102c7565b60405161007096959493929190610d84565b6100a16100c1366004610bd0565b610636565b600080826040516100d79190610e06565b908152602001604051809103902060050180546100f390610e22565b15159392505050565b60008760405161010c9190610e06565b9081526020016040518091039020600501805461012890610e22565b15905061018d5760405162461bcd60e51b815260206004820152602860248201527f63657274696669636174652077697468207468697320696420616c726561647960448201526701032bc34b9ba39960c51b60648201526084015b60405180910390fd5b60006040518060c00160405280888152602001878152602001868152602001858152602001848152602001838152509050806000896040516101cf9190610e06565b908152602001604051809103902060008201518160000190805190602001906101f9929190610a94565b5060208281015180516102129260018501920190610a94565b506040820151805161022e916002840191602090910190610a94565b506060820151805161024a916003840191602090910190610a94565b5060808201518051610266916004840191602090910190610a94565b5060a08201518051610282916005840191602090910190610a94565b509050507f267fae70dc2912ede5096795f49d41fac472461a02e4f8703eceee0e785bbd1d886040516102b59190610e5c565b60405180910390a15050505050505050565b80516020818301810180516000825292820191909301209152805481906102ed90610e22565b80601f016020809104026020016040519081016040528092919081815260200182805461031990610e22565b80156103665780601f1061033b57610100808354040283529160200191610366565b820191906000526020600020905b81548152906001019060200180831161034957829003601f168201915b50505050509080600101805461037b90610e22565b80601f01602080910402602001604051908101604052809291908181526020018280546103a790610e22565b80156103f45780601f106103c9576101008083540402835291602001916103f4565b820191906000526020600020905b8154815290600101906020018083116103d757829003601f168201915b50505050509080600201805461040990610e22565b80601f016020809104026020016040519081016040528092919081815260200182805461043590610e22565b80156104825780601f1061045757610100808354040283529160200191610482565b820191906000526020600020905b81548152906001019060200180831161046557829003601f168201915b50505050509080600301805461049790610e22565b80601f01602080910402602001604051908101604052809291908181526020018280546104c390610e22565b80156105105780601f106104e557610100808354040283529160200191610510565b820191906000526020600020905b8154815290600101906020018083116104f357829003601f168201915b50505050509080600401805461052590610e22565b80601f016020809104026020016040519081016040528092919081815260200182805461055190610e22565b801561059e5780601f106105735761010080835404028352916020019161059e565b820191906000526020600020905b81548152906001019060200180831161058157829003601f168201915b5050505050908060050180546105b390610e22565b80601f01602080910402602001604051908101604052809291908181526020018280546105df90610e22565b801561062c5780601f106106015761010080835404028352916020019161062c565b820191906000526020600020905b81548152906001019060200180831161060f57829003601f168201915b5050505050905086565b606080606080606080600080886040516106509190610e06565b90815260200160405180910390206040518060c001604052908160008201805461067990610e22565b80601f01602080910402602001604051908101604052809291908181526020018280546106a590610e22565b80156106f25780601f106106c7576101008083540402835291602001916106f2565b820191906000526020600020905b8154815290600101906020018083116106d557829003601f168201915b5050505050815260200160018201805461070b90610e22565b80601f016020809104026020016040519081016040528092919081815260200182805461073790610e22565b80156107845780601f1061075957610100808354040283529160200191610784565b820191906000526020600020905b81548152906001019060200180831161076757829003601f168201915b5050505050815260200160028201805461079d90610e22565b80601f01602080910402602001604051908101604052809291908181526020018280546107c990610e22565b80156108165780601f106107eb57610100808354040283529160200191610816565b820191906000526020600020905b8154815290600101906020018083116107f957829003601f168201915b5050505050815260200160038201805461082f90610e22565b80601f016020809104026020016040519081016040528092919081815260200182805461085b90610e22565b80156108a85780601f1061087d576101008083540402835291602001916108a8565b820191906000526020600020905b81548152906001019060200180831161088b57829003601f168201915b505050505081526020016004820180546108c190610e22565b80601f01602080910402602001604051908101604052809291908181526020018280546108ed90610e22565b801561093a5780601f1061090f5761010080835404028352916020019161093a565b820191906000526020600020905b81548152906001019060200180831161091d57829003601f168201915b5050505050815260200160058201805461095390610e22565b80601f016020809104026020016040519081016040528092919081815260200182805461097f90610e22565b80156109cc5780601f106109a1576101008083540402835291602001916109cc565b820191906000526020600020905b8154815290600101906020018083116109af57829003601f168201915b50505050508152505090506000886040516109e79190610e06565b90815260200160405180910390206005018054610a0390610e22565b9050600003610a645760405162461bcd60e51b815260206004820152602760248201527f43657274696669636174652077697468207468697320494420646f6573206e6f6044820152661d08195e1a5cdd60ca1b6064820152608401610184565b6020810151815160408301516060840151608085015160a090950151939c929b5090995097509195509350915050565b828054610aa090610e22565b90600052602060002090601f016020900481019282610ac25760008555610b08565b82601f10610adb57805160ff1916838001178555610b08565b82800160010185558215610b08579182015b82811115610b08578251825591602001919060010190610aed565b50610b14929150610b18565b5090565b5b80821115610b145760008155600101610b19565b634e487b7160e01b600052604160045260246000fd5b600082601f830112610b5457600080fd5b813567ffffffffffffffff80821115610b6f57610b6f610b2d565b604051601f8301601f19908116603f01168101908282118183101715610b9757610b97610b2d565b81604052838152866020858801011115610bb057600080fd5b836020870160208301376000602085830101528094505050505092915050565b600060208284031215610be257600080fd5b813567ffffffffffffffff811115610bf957600080fd5b610c0584828501610b43565b949350505050565b600080600080600080600060e0888a031215610c2857600080fd5b873567ffffffffffffffff80821115610c4057600080fd5b610c4c8b838c01610b43565b985060208a0135915080821115610c6257600080fd5b610c6e8b838c01610b43565b975060408a0135915080821115610c8457600080fd5b610c908b838c01610b43565b965060608a0135915080821115610ca657600080fd5b610cb28b838c01610b43565b955060808a0135915080821115610cc857600080fd5b610cd48b838c01610b43565b945060a08a0135915080821115610cea57600080fd5b610cf68b838c01610b43565b935060c08a0135915080821115610d0c57600080fd5b50610d198a828b01610b43565b91505092959891949750929550565b60005b83811015610d43578181015183820152602001610d2b565b83811115610d52576000848401525b50505050565b60008151808452610d70816020860160208601610d28565b601f01601f19169290920160200192915050565b60c081526000610d9760c0830189610d58565b8281036020840152610da98189610d58565b90508281036040840152610dbd8188610d58565b90508281036060840152610dd18187610d58565b90508281036080840152610de58186610d58565b905082810360a0840152610df98185610d58565b9998505050505050505050565b60008251610e18818460208701610d28565b9190910192915050565b600181811c90821680610e3657607f821691505b602082108103610e5657634e487b7160e01b600052602260045260246000fd5b50919050565b602081526000610e6f6020830184610d58565b939250505056fea2646970667358221220cd1e5263cfc774dcee06942baead9a23c994a7eb64fba6a449b11815a4baa9bc64736f6c634300080d0033",
  "immutableReferences": {},
  "source": "// SPDX-License-Identifier: MIT\r\npragma solidity ^0.8.13;\r\n\r\ncontract Certification {\r\n    struct Certificate{\r\n        string name;\r\n        string usn;\r\n        string sem;\r\n        string branch;\r\n        string course;\r\n        string ipfshash;\r\n    }\r\n    mapping (string => Certificate) public certificates;\r\n    event certificateGenerated(string certid);\r\n\r\n    function generateCertificate(\r\n        string memory _certid,\r\n        string memory _name,\r\n        string memory _usn,\r\n        string memory _sem,\r\n        string memory _branch,\r\n        string memory _course,\r\n        string memory _ipfshash\r\n    ) public {\r\n      require(bytes(certificates[_certid].ipfshash).length == 0, \r\n      \"certificate with this id already exists \");\r\n      Certificate memory cert = Certificate({\r\n        usn : _usn,\r\n        name : _name,\r\n        sem : _sem,\r\n        branch : _branch,\r\n        course : _course,\r\n        ipfshash : _ipfshash\r\n\r\n      });\r\n\r\n      certificates[_certid] = cert;\r\n\r\n      emit certificateGenerated(_certid);\r\n    }\r\n\r\n\r\n    function getCertificate(string memory _certid) public view \r\n        returns (\r\n            string memory _usn,\r\n            string memory _name,\r\n            string memory _sem,\r\n            string memory _course,\r\n            string memory _branch,\r\n            string memory _ipfshash\r\n        ) {\r\n        Certificate memory cert = certificates[_certid];\r\n        require(\r\n            bytes(certificates[_certid].ipfshash).length != 0,\r\n            \"Certificate with this ID does not exist\"\r\n        );\r\n        return (cert.usn, cert.name, cert.sem, cert.branch, cert.course, cert.ipfshash);\r\n    }\r\n\r\n\r\n    function isVerified(\r\n        string memory _certid\r\n    ) public view returns (bool) {\r\n        return bytes(certificates[_certid].ipfshash).length != 0;\r\n    }\r\n\r\n}\r\n",
  "sourcePath": "G:\\proj\\C3RTiFY\\contracts\\certification.sol",
  "compiler": {
    "name": "solc",
    "version": "0.8.13+commit.abaa5c0e.Emscripten.clang"
  },
  "schemaVersion": "3.4.16",
  "updatedAt": "2024-08-22T14:48:40.404Z",
  "networkType": "ethereum",
  "devdoc": {
    "kind": "dev",
    "methods": {},
    "version": 1
  },
  "userdoc": {
    "kind": "user",
    "methods": {},
    "version": 1
  }
}